:1000000010C015C014C013C012C011C010C00FC062
:100010000EC00DC00CC00BC00AC009C008C007C08C
:1000200006C011241FBECFEDCDBF2CD0A7C0E8CF96
:1000300089B3809580780895369A349BFECF349AA0
:1000400085B190E0863608F091E0892F0895C19A35
:1000500082E19AE70197F1F7C1980895DA9AD99A5F
:100060000895DA98D9980895882319F0C09A81E004
:100070000895C09880E0089517B813B81C9A16B870
:10008000379A0895EF92FF920F931F93CF93DF93C8
:1000900084B7877F84BF86E090E020E80FB6F894AD
:1000A00026BD86BD0FBE8BB31BBA8AB31ABA88B3FE
:1000B00018BA87B317BA8AB386608ABBDF9A87B348
:1000C000876087BBC19ADA9AD99AC098DB98D4DF47
:1000D00088E391E00197F1F7C19A82E19AE70197ED
:1000E000F1F7C19800E082E1E82E8AE7F82EC3E03C
:1000F000D0E019B3A1DF17FD02C010E023C08823B0
:1001000051F10023B1F7DA98D9988FEF9FEFFE01F4
:100110003197F1F70197D9F723C0C7010197F1F79C
:10012000C29A80E395E7FE013197F1F70197D9F77D
:10013000C29880E395E7FE013197F1F70197D9F76F
:100140001F5F7ADF8823B1F4153039F7C19AC701F0
:100150000197F1F7C198002339F4CBCFDA98D998F9
:10016000C09ADB9A01E0C5CFDA9AD99AC098DB9899
:1001700000E0BFCF002309F0BCCFF0CFF894FFCF51
:00000001FF
