:1000000010C01DC01CC01BC01AC019C018C017C02A
:1000100016C015C014C013C012C011C010C00FC04C
:100020000EC011241FBECFEDCDBF10E0A0E6B0E0A2
:1000300001C01D92A236B107E1F702D092C0E0CF15
:1000400080E090E020E80FB6F89426BD86BD0FBE94
:100050008BB31BBA8AB31ABA88B318BA87B317BA64
:100060008AB38C608ABBDF9A87B3816F87BB88B302
:10007000806F88BB80E491E0FC013197F1F7B99A79
:10008000E0E0FDE73197F1F7B9980197F1F750916A
:1000900060004091610030E060E07DE7A3E0B0E007
:1000A000E9B399B3917089B3282F227081FD04C000
:1000B000442311F0DB9840E0992331F4552321F0DB
:1000C000442311F4DA9850E0223039F4442329F41F
:1000D000DA9ADB9A51E041E006C0913021F45523D1
:1000E00011F4DA9A51E0E7FF0CC0CE9B2DC0332308
:1000F000B9F68FEF9FEFFD013197F1F70197D9F72F
:1001000026C080E0CE9981E020E08823B1F025C0B0
:10011000BA9ACB010197F1F7CB010197F1F7CB0127
:100120000197F1F7BA9880E49CE9FD013197F1F766
:100130000197D9F72F5FCE9910C0253049F7B99AAA
:10014000CB010197F1F7B998332321F4A9CFC09AD5
:1001500031E0A6CFC09830E0A3CF332309F0A0CF81
:06016000F6CFF894FFCF7A
:00000001FF
